:100000000C942A000C943F000C943F000C943F0089
:100010000C943F000C943F000C943F000C943F0064
:100020000C943F000C943F000C943F000C943F0054
:100030000C943F000C943F000C943F000C943F0044
:100040000C943F000C943F000C943F000C943F0034
:100050000C943F0011241FBECFE5D8E0DEBFCDBF1A
:1000600010E0A0E6B0E0E8EAF5E002C005900D92ED
:10007000A839B107D9F70E942A020C94D2020C9435
:100080000000683008F074C04423D1F58130A1F03D
:10009000813030F08230E1F0833009F069C024C053
:1000A0002BB381E090E002C0880F991F6A95E2F7B8
:1000B000809582238BBB5AC028B381E090E002C0B8
:1000C000880F991F6A95E2F78095822388BB4EC0FE
:1000D00025B381E090E002C0880F991F6A95E2F78E
:1000E0008095822385BB42C022B381E090E002C0AC
:1000F000880F991F6A95E2F78095822382BB36C0EC
:100100004130B1F5813091F0813028F08230C9F072
:10011000833071F521C02BB381E090E002C0880FDD
:10012000991F6A95E2F7282B2BBB20C028B381E0EA
:1001300090E002C0880F991F6A95E2F7282B28BB30
:1001400015C025B381E090E002C0880F991F6A9521
:10015000E2F7282B25BB0AC022B381E090E002C061
:10016000880F991F6A95E2F7282B22BB80E008953B
:1001700081E00895813051F0813030F0823041F0DB
:10018000833079F080E0089589B303C086B301C05D
:1001900083B390E002C0959587956A95E2F78170E8
:1001A000089580B390E002C0959587956A95E2F72F
:1001B00081700895813051F0813030F0823041F00B
:1001C000833049F081E008956BBB03C068BB01C078
:1001D00065BB80E0089562BB80E00895813051F0F6
:1001E000813030F0823041F0833041F080E008957A
:1001F00089B3089586B3089583B3089580B30895AD
:100200000F931F93CF93DF93C0E0D0E0FE01ED5634
:10021000FF4F108183E0612F40E00E94410004E025
:1002200083E064E00E94BA00882319F4E0E0F0E083
:100230001DC005E083E065E00E94BA00882319F440
:10024000E1E0F0E013C006E083E066E00E94BA005F
:10025000882319F4E2E0F0E009C007E083E067E0FA
:100260000E94BA00882391F4E3E0F0E0EE0FFF1F54
:10027000EE0FFF1FEC0FFD1FED57FF4F108183E0C6
:10028000602F0E94BA008823D1F30BC083E0612F56
:1002900041E00E9441002196C430D10509F0B6CF5B
:1002A0001FEF812FDF91CF911F910F9108951F9321
:1002B000182F82E060E041E00E94410082E061E0AE
:1002C00040E00E94410080E0612F0E94DA0082E05D
:1002D00062E041E00E94410080EA9FE00197F1F76F
:1002E00082E062E040E00E9441001F9108951F9368
:1002F000CF93DF93EC0110E003C00E9457011F5F12
:10030000FE01E10FF11D80818823B9F7DF91CF91C4
:100310001F9108951F93CF93DF93EC0110E003C06A
:100320000E9457011F5FFE01E10FF11D80818823AC
:10033000B9F7DF91CF911F9108951F93182F82E095
:1003400060E040E00E94410082E061E040E00E9405
:10035000410080E0612F0E94DA0082E062E041E02B
:100360000E94410080EA9FE00197F1F782E062E09D
:1003700040E00E9441001F91089581E00E949D018C
:100380000895882319F0813009F4605C862F805825
:100390000E949D010895DF92EF92FF920F931F93A9
:1003A000CF93DF938C01F62EE42ED22E862F880F6A
:1003B000880F880F805C0E949D01C0E0D0E0F801AA
:1003C000EC0FFD1F80810E9457012196C830D10596
:1003D000B1F78E2D6D2D0E94C1018F2D0E94570106
:1003E000DF91CF911F910F91FF90EF90DF900895D3
:1003F0000F931F9380E991E028EC30E0F9013197E9
:10040000F1F70197D9F788E30E949D0100ED17E00D
:10041000C8010197F1F78CE00E949D01C801019786
:10042000F1F781E00E949D0180EA9FE00197F1F7DA
:1004300086E00E949D011F910F9108958FEF8ABB66
:1004400017BA97E094BB9FE091BB1BBA18BA15BAD4
:1004500082BB08956F927F928F929F92AF92BF92CC
:10046000CF92DF92FF920F931F93DF93CF93CDB77D
:10047000DEB728970FB6F894DEBF0FBECDBF0E943F
:100480001E020E94F80181E3898382E38A8383E369
:100490008B8384E38C831D821E821F821886FF2437
:1004A00025E0A22EB12CAC0EBD1E99E0692E712C58
:1004B0006C0E7D1E4E010894811C911C88ECC82E88
:1004C000D12C85010E9400018F3FE1F3F801819357
:1004D0008F018AE20E9457010615170599F70E94BD
:1004E000BD0120E030E0F501E20FF31FD401A20FBF
:1004F000B31F90818C91981731F42F5F3F4F2430B8
:10050000310589F70FC080E690E00E948A0180E102
:1005100097E2F6013197F1F70197D9F70E94BD01F3
:10052000F3940FC080E064E00E94C1018FE690E088
:100530000E948A0180E29EE4F6013197F1F701976B
:10054000D9F7F3E0FF1659F580E690E00E948A01A2
:1005500081E062E00E94C10187E790E00E948A0189
:1005600080E29EE428EC30E0F9013197F1F7019741
:10057000D9F70E94BD0128960FB6F894DEBF0FBED2
:10058000CDBFCF91DF911F910F91FF90DF90CF9062
:10059000BF90AF909F908F907F906F9008950E9432
:0805A000BD018FCFF894FFCFDD
:1005A80057524F4E472050415353574F52440057CC
:1005B800454C434F4D450054485245452054494DFC
:1005C8004553003132332F3435362A3738392D6FB9
:0805D800303D2B00010203007D
:00000001FF
